:020000040800F2
:10000000C868002029020008CD33000871320008BA
:10001000C9330008C5040008DD35000800000000F1
:10002000000000000000000000000000D5330008C0
:10003000AD08000800000000D1330008D9330008E3
:10004000430200084302000843020008430200087C
:10005000430200084302000843020008430200086C
:10006000430200084302000843020008430200085C
:10007000430200084302000843020008430200084C
:10008000430200084302000843020008430200083C
:10009000430200084302000843020008430200082C
:1000A000430200084302000843020008430200081C
:1000B000430200084302000843020008430200080C
:1000C00043020008430200084302000843020008FC
:1000D00043020008430200084302000843020008EC
:1000E00043020008430200084302000843020008DC
:1000F0004302000843020008430200089508000874
:1001000043020008430200084302000843020008BB
:1001100043020008430200084302000843020008AB
:10012000A108000843020008430200084302000837
:10013000430200084302000843020008430200088B
:10014000430200084302000843020008430200087B
:10015000430200084302000843020008430200086B
:10016000430200084302000843020008430200085B
:100170004302000843020008430200080000000098
:10018000430200084302000800F002F800F03CF8C7
:100190000AA090E8000C82448344AAF10107DA45E2
:1001A00001D100F031F8AFF2090EBAE80F0013F0F8
:1001B000010F18BFFB1A43F001031847FC3700007A
:1001C0001C380000103A24BF78C878C1FAD852070A
:1001D00024BF30C830C144BF04680C6070470000C1
:1001E0000023002400250026103A28BF78C1FBD840
:1001F000520728BF30C148BF0B6070471FB503F0DE
:10020000BEFB1FBD10B510BD00F0DBF81146FFF7B7
:10021000F5FF03F0E5F900F0F9F803B4FFF7F2FF9A
:1002200003BC00F001F90000094880470948004775
:10023000FEE7FEE7FEE7FEE7FEE7FEE7FEE7FEE796
:10024000FEE7FEE704480549054A064B70470000F3
:100250008D34000889010008C8620020C8680020A9
:10026000C8640020C864002053EA020C00F06980D2
:100270002DE9F04B4FF00006002B1FBFB3FA83F5BA
:1002800003FA05F424FA05F65E4012BF1643B2FAEB
:1002900082F502FA05F4C5F120051EBF22FA05FC1D
:1002A00044EA0C04203556EA044C4FEA144418BFC3
:1002B000641C4FF000084FF00009904271EB030CF2
:1002C00039D3002919BFB1FA81F701FA07F6B0FA5C
:1002D00080F700FA07F6C7F120071EBF20FA07FCD7
:1002E00046EA0C062037B6FBF4FCA7EB0507103FE7
:1002F00007F01F0BCBF120062CFA06F60CFA0BFBCD
:1003000044BFB3460026202FA4BF5E464FF0000B2B
:100310005BEA060C08BF4FF0010B19EB0B0948EB29
:100320000608ABFB027C06FB02CC0BFB03CCC01B1C
:1003300071EB0C01C1E70B46024641464846BDE859
:10034000F08B13B5084318BF4FF0FF300146AFF3F1
:100350000080BDE81C40704710B5203AC0F00B800B
:10036000B1E81850A0E81850B1E81850A0E81850AB
:10037000203ABFF4F5AF5FEA027C24BFB1E8185021
:10038000A0E8185044BF18C918C0BDE810405FEA83
:10039000827C24BF51F8043B40F8043B08BF7047FF
:1003A000D20728BF31F8023B48BF11F8012B28BF04
:1003B00020F8023B48BF00F8012B70477047704798
:1003C0007047754600F02CF8AE4605006946534666
:1003D00020F00700854618B020B5FFF733FFBDE8D1
:1003E00020404FF000064FF000074FF000084FF09C
:1003F000000BAC46ACE8C009ACE8C009ACE8C009E9
:10040000ACE8C00921F007018D46704710B50446DD
:10041000AFF300802046BDE81040FFF7FEBE0000AD
:10042000004870471000002001491820ABBEFEE7CD
:1004300026000200704700000146806B036C026CCE
:1004400013F0500F08D0D20648BF00F0FBBA806B03
:10045000C26C0846104700BF42F400710164016895
:100460008A6812F0405F01D000F0CCBA027E002A08
:10047000FAD1CA6A12F4700F02D08A685205F3D416
:100480004A6822F020024A60016C21F48071016404
:10049000016CC90448BF00F0B5BA016C41F001011C
:1004A000016400F0AFBA0000806B40210164416C30
:1004B00041F00401416400F0C5BA0000806B00F017
:1004C000B1BA0000FEE7000080B582B040F27002D1
:1004D0000428C2F2000207D24BF6FF71C000CAF630
:1004E000EF7121FA00F002E0507840F00F00042193
:1004F000117050704FF0640C101D94210223CDF840
:1005000000C001F001FB02B080BD000084B02DE905
:10051000F04782B00DF1280C8CE80F0040F27C20EF
:10052000C2F20000002180F840100068DDF87C80F5
:10053000C169012241F48061C16140F60040C4F20A
:100540000200102100F016FF40F27004C2F2000415
:10055000251D0AA928465422FFF7FEFE40F202207C
:1005600020806427284694212246022300974FF0DA
:10057000020901F0C9FA4AF6047020802846942145
:1005800022460223009701F0BFFA48F205002080BE
:100590002846942122460223009701F0B5FA4FF035
:1005A000060A284694212246012384F800A00097D9
:1005B00001F0AAFA2846942122460123009700F070
:1005C000A1FF264616F8010F942100F02000073005
:1005D000307028462246022384F800A0009701F0DC
:1005E00093FA4FF0080A284694212246012384F802
:1005F00000A0009701F088FA284694213246012392
:10060000009700F07FFF3078942100F0F000013077
:10061000307028462246022384F800A0009701F09B
:1006200073FA4FF0090A284694212246012384F8E0
:1006300000A0009701F068FA284694213246012371
:10064000009700F05FFF3078942100F0F000013057
:10065000307028462246022384F800A0009701F05B
:1006600053FA0E2020702846942122460123009739
:1006700001F04AFA2846942132460123009700F0FF
:1006800041FFB8F1000F0AD0B8F1010F09D194F879
:1006900001904FF6F870C1F6FF7060F3DF0984F83F
:1006A00001900E20207064262846942122460223C1
:1006B000009601F029FA0F272846942122460123AB
:1006C0002770009601F020FA621C2846942101232D
:1006D000009600F017FF2846942122460223278027
:1006E000009601F011FA1420208028469421224619
:1006F0000223009601F008FA152020702846942164
:1007000022460223009601F0FFF91A2020702846A5
:10071000942122460223009601F0F6F91B20207056
:100720002846942122460223009601F0EDF902B0FA
:10073000BDE8F04704B07047F0B581B040F27004F6
:1007400006466FF06300C2F2000400EB460014217D
:10075000251D2170607064272846942122460223BB
:10076000009701F0D1F915202070284694212246E7
:100770000223009701F0C8F906EB460045F2EC11A0
:1007800048436FF0170101EB5040642E88BF1820DA
:100790002021217060702846942122460223009770
:1007A00001F0B2F92120207028469421224602232C
:1007B000009701F0A9F901B0F0BD00002DE9F0416A
:1007C00082B040F27004C2F200044FF41940251DBB
:1007D00020806427284694212246022304F1010840
:1007E000009701F091F948F24700208028469421B3
:1007F00022460223009701F087F9322628469421E9
:10080000224601232670009701F07EF928469421A4
:1008100042460123009700F075FE6078942140F075
:10082000800060702846224602232670009701F05F
:100830006BF928469421224601232670009701F087
:1008400063F92846942142460123009700F05AFE9E
:100850006078942100F07F006070284622460223D1
:100860002670009701F050F900202080284694213E
:1008700022460223009701F047F949F602602080E2
:100880002846942122460223009701F03DF902B048
:10089000BDE8F08140F2C810C2F2000000F0ACBA2E
:1008A00040F26810C2F2000000F0A6BA70470000E3
:1008B000EFF3108072B600BFFEE7000070B581B0A4
:1008C0000022009290F83C20012A03D10221084620
:1008D00001B070BD0E6801220A2E80F83C2009D3B9
:1008E000B2B25200D0F800E012FA86F21E3A0EF1CF
:1008F0000C0305E0D0F800E006EB46020EF1100311
:100900004FF0070C1D680CFA02F4A5431D608D68BA
:100910001C6805FA02F222431A60496806290FD8BA
:1009200001EB81014A1F71461F2351F8345F934048
:1009300025EA03030B60B3B203FA02F214E000BF2E
:1009400001EB81030C29B2B204D8714651F8304F43
:10095000233B03E0714651F82C4F413B1F259D403E
:1009600024EA05059A400D600B6842F2043CC4F28B
:10097000010C1A43ACF541739E450A603BD1122E1F
:1009800006D1DCF8001041F48001CCF8001032E010
:1009900026F0010110292ED1DCF80010102E41F4B0
:1009A0000001CCF8001026D140F20801C2F200018B
:1009B00009684DF68362C4F21B32A1FB0212910C4E
:1009C00001EB8101490000910099A1B10099013921
:1009D0000091009979B1009901390091009951B1C4
:1009E000009901390091009929B1009901390091CC
:1009F00000990029EAD1002180F83C10084601B096
:100A000070BD000080B540F60040C4F202004FF413
:100A1000005100F0A7FC40F21810C2F200000121C2
:100A2000016080BD80B540F60040C4F202004FF482
:100A3000805100F097FC40F21C10C2F2000001212E
:100A4000016080BD70470000002804BF012070478E
:100A500010B50446006C00283ED0206CC00645D47A
:100A6000206C41F202118843023042F204312064CA
:100A7000C4F20101086820F4403008600A6894E874
:100A800009101A43D4F810E00A604168012321F4E8
:100A9000807141604168C0F6007341EA0E214160F7
:100AA000416821F040714160416841EA0C014160B8
:100AB000816821F400618160E1688268114381608E
:100AC000A16A8268994222F070628260826813D1C2
:100AD00022F0405119E000BF204600F065F80020E8
:100AE000606484F83C00206CC006B9D50120002168
:100AF00084F83C1010BD00BF11438160816821F073
:100B000040518160E16A826811438160816821F00F
:100B1000020181608168227E94F8203041EA42011E
:100B20008160416883B141F40061416041684EF2E7
:100B3000000221F460414160616ACFF6FF724368B0
:100B400002EB4131194301E021F400614160C16AC7
:100B500040F2000C21F47001C162E2696169CFF6D4
:100B6000F07CC36A0CEB02521A43C262826822F420
:100B70000072826094F83020836843EA42228260E7
:100B8000826822F480628260826842EA8121816008
:100B900000206064216C012262F3010121640021C4
:100BA00084F83C1010BD0000F0B587B0044642F256
:100BB00000002168C4F201000026814206960596D5
:100BC00002D007B0F0BD00BF43F630010196C4F279
:100BD00002014A69012742F480724A614A6900F5BC
:100BE000604002F480720192019A01960A6842F014
:100BF00001020A60096801F00101019101990321D4
:100C0000CDE9031602A9029700F0D8FA40F2681560
:100C100046F21040C2F20005C4F202004FF48061B7
:100C2000C5E9000605F110004FF400624FF40053CF
:100C30004EC00420C5E908602846C5E90266C5E93A
:100C40000A762E6300F0B8F9002818BFFFF730FECF
:100C5000A563AC6307B0F0BDB0B582B00446002018
:100C6000019094F83C00012802D1022002B0B0BDEE
:100C700094460A460120216884F83C008868C00731
:100C800029D188684DF6836540F00100886040F204
:100C90000800C2F200000068C4F21B35A0FB050585
:100CA000A80C00EB400001900198A0B10198013818
:100CB0000190019878B1019801380190019850B1E4
:100CC000019801380190019828B1019801380190EC
:100CD00001980028EAD18868C00503D5886820F407
:100CE000807088608D68206CED0709D140F010009D
:100CF0002064606C40F001006064002002B0B0BD70
:100D000040F20175A84300F58070206448684005F2
:100D100004D5206C012565F30D302064256C00207E
:100D2000ED044FF0000544BF656C25F006056564D1
:100D300084F83C00A06B40F2394540F2BD43C0F658
:100D40000005C0F60003C0E90F5340F2A943C0F606
:100D50000003C3646FF022030B604B6842F2080586
:100D600043F080634B608B68C4F2010543F48073E9
:100D70008B604C31634600F0D1F9D5F8FC12206845
:100D8000C9060FD0A5F108018842B6D1286810F035
:100D9000405FB2D1286840F080402860002002B057
:100DA000B0BD00BF42F20001C4F20101884217D079
:100DB00042F20021C4F2010188420DD042F200113A
:100DC000C4F20101884298D1D5F8FC12C90607D0B7
:100DD00005F5FC71884290D1D5F8FC12C9068CD477
:100DE000816811F0405F7FF488AF816841F08041F5
:100DF0008160002002B0B0BDF0B581B00446002093
:100E0000009040F20800C2F200000268D4E91660C7
:100E100048F2B51337680821C1F64E338140394294
:100E2000A2FB03250CD0226813685B0708D5136862
:100E300023F004031360B160616D41F0010161654D
:100E400001218140394208D022685269120604D536
:100E5000B160616D41F00201616504218140394258
:100E600008D022681268920704D5B160616D41F024
:100E70000401616510218140394217D02068026861
:100E8000120713D5B16002680168520308D4C9057E
:100E900008D4016821F008010160216C21B905E046
:100EA00008033FD4216C09B120468847E16D20201A
:100EB00000FA01F23A4241D020680368DB063DD5D2
:100EC000B26094F835300268052B1BD122F016026F
:100ED0000260426922F080024261226C0AB9A26C6F
:100EE0001AB1026822F0080202603F208840B06018
:100EF000012084F83500216D0020002984F8340099
:100F000052D157E00168520310D4C90512D40168C8
:100F100021F010010160012084F83500002084F8E0
:100F2000340007E0A16C0029BED1BFE7080301D45B
:100F3000616C00E0E16B09B120468847606DC8B381
:100F4000606DC0072ED0052084F835002068A90AFE
:100F5000026822F001020260009A01328A42009285
:100F60001AD80268D20717D0009A01328A4200923A
:100F700012D80268D2070FD0009A01328A4200923A
:100F80000AD80268D20707D0009A01328A4200923A
:100F900002D80268D207DFD1012084F83500002092
:100FA00084F83400E16C29B1204601B0BDE8F0407E
:100FB000084700BF01B0F0BD2DE9F041044600F044
:100FC000DFF9ECB10546022084F8350000202168E5
:100FD00084F83400086820F001000860216808687F
:100FE000C00711D000F0CCF9401B0528F6D9032525
:100FF00020230320636584F83550BDE8F08100BFED
:101000000120BDE8F08100BF086848F23F02CFF23E
:101010001002D4E9013500EA020C04F10C0898E84A
:10102000C10143EA0C032B431843D4E9072E304394
:1010300038431043626A40EA0E00042A40EA08037B
:101040001CD1206BD4E90A2E40EA0E001843086038
:101050004869BEF1000F20F0030040EA020040F0B2
:10106000040C11D0B8F5005F36D0B8F1000F45D1AF
:10107000022A46D0012A3BD032B942E00B604869CF
:1010800020F0070040EA020C01F0F8004AF6AB221B
:101090001038CAF6AA22A0FB02231A0943F6B0139D
:1010A000C0F600039A5C40F2FF335F284FF03F0028
:1010B000C1F814C021EA030100FA02F088BF04312C
:1010C000C4E916128860002301250020636584F8B6
:1010D0003550BDE8F08100BF032AD5D80125402353
:1010E0000120DFE802F0030E030500BF82E700BF26
:1010F000AEF1C070B0FA80F0400904E0032A04D3D6
:10110000C2D1CEF300600028BED0012540230120CB
:10111000636584F83550BDE8F081000070B590F843
:1011200034C0BCF1010F46D04FF0010C80F834C040
:10113000D0F858E090F835C0BCF1010F38D14FF02D
:10114000020C80F835C04FF0000CC0F854C0D0F845
:1011500000C08468056CC06DDCF80060402C26F48B
:101160008026CCF80060CCF804300B4604BF134650
:101170000A463F2101FA00F0CCF80830CCF80C20E8
:10118000CEF80800DCF8000040F01600CCF80000B3
:101190002DB1DCF8000040F00800CCF80000DCF8CD
:1011A000000040F00100CCF80000002070BD00BF3E
:1011B000002180F83410022070BD00002DE9F04FAE
:1011C00082B000F13E4241F6004502F1FF77C4F2E1
:1011D0000205082243F6004E4FEAB726A84208BF90
:1011E0000722C4F2010E072E38BF4FEAB7220125AD
:1011F000002600274FF00008009208E008F10108DF
:101200000437B8F1100F06F1020600F0A7800C6851
:1012100005FA08F914EA090FF0D0D1F804B0032256
:101220000BF0030CACF10104B240012C6FEA020A8E
:1012300010D88268CC6802EA0A02B4402243826075
:101240004268CBF3001422EA090204FA08F42243AC
:10125000426005E0BCF1030F02D14FF0030C20E027
:10126000C2688C6802EA0A02B4402243BCF1020F51
:10127000C26016D16FF0030202EA58020244D2F8AB
:1012800020C007F01C050F230C69AB402CEA0303B8
:1012900004FA05F52B431362D1F804B001250BF0D5
:1012A000030C02680CFA06F302EA0A021A431BF462
:1012B000403F0260A2D0002243F644030192C4F2F0
:1012C00002031A684FF6084C42F480421A601A680A
:1012D000CFF6FF7C02F480420192019A28F00302CB
:1012E000724452F80C3007F00C050F24AC40A343B5
:1012F000009C04FA05F52B4342F80C30DEF8082078
:101300004B6842EA090543F60C4CDC0258BF22EA5E
:101310000905CEF80850C4F2010CDCF800209C024C
:1013200042EA090558BF22EA0905CCF80050DEF868
:1013300004209C0342EA090558BF22EA0905CEF8B9
:101340000450DEF80020DB0342EA090558BF22EA18
:101350000905CEF80050012550E700BF02B0BDE8F6
:10136000F08F0000426902EA0103914341EA034120
:1013700081617047002A08BF09048161704700003D
:1013800046F2C420C2F200000068704770B5B8B3DE
:10139000044690F83D0028B9002084F83C0020461F
:1013A00000F0EEFD242084F83D002068016821F063
:1013B00001010160016841F400410160016821F40C
:1013C0000041016001F078FB48F28041C0F21E014B
:1013D00040F60013D4F804E088424FF00001C0F258
:1013E0003D0348F2A16C4FF0000238BF0121984242
:1013F000C0F2010C38BF0122E64538BF0A460AB1E7
:10140000012070BD4DF68361C4F21B31A0FB0112B7
:101410002168950C4B684FF4967623F03F0343EA1E
:101420009243754344F6D3564B60C1F262060B6A91
:10143000A5FB0656B50923F03F03E64538BF950CDA
:101440006A1C1A430A62CA6948F2A0664CF6FF7326
:10145000C0F20106B64522EA03020BD801384FEA72
:101460004E03B0FBF3F001306FF31F30042898BF38
:1014700004201EE0A368013863B119230EFB03F3B7
:10148000B0FBF3F001306FF31F3078B100F580400E
:1014900008E000BF0EEB4E03B0FBF3F001306FF33A
:1014A0001F3028B100F5004003E000BF012000E03C
:1014B00001201043C8610868D4E9072320F0C00068
:1014C000104318430860886848F2FF3204F10C06A4
:1014D00090434CCE18431043A5698860C86820F03B
:1014E000FF0030432843C860086840F001000860EE
:1014F00000202021206484F83D10206384F83E0001
:1015000070BD00002DE9F04182B01F4616468846A6
:101510000446FFF735FF94F83D1020291CD10546FD
:1015200020688169890713D5FFF72AFF401B192816
:10153000F6D900202021206384F83D1084F83E0075
:10154000216C41F02001216484F83C0004E000BFDC
:1015500094F83C10012903D1022002B0BDE8F081CB
:10156000012184F83C100168C90703D1016841F0EA
:1015700001010160016821F400610160222184F809
:101580003D10102184F83E100021216466626785B9
:10159000618D21850021CFF6FF71E162E16A026869
:1015A00011F5803F42F48062026018BF012919D111
:1015B000016841F4807101604169089EC90724D126
:1015C000711C18D0002E00F0CB8000BFFFF7D8FEB2
:1015D000401BB04200F2C68020684169C907F5D0BF
:1015E00013E000BF0829E3D0216B1129E0D0E3E725
:1015F0004169C90709D14169C90706D14169C907CC
:1016000004BF41695FEAC171F2D02169B1F5804F31
:1016100008D148F00101C9B201614169890740F16F
:10162000CC8003E1062101EAD81707F1F00101613E
:101630004169090738D44169721C01F4806113D0F3
:10164000002940F0EA80002E00F01082FFF798FE9B
:10165000401BB04200F20C8220684169090723D484
:1016600041694905F2D5D8E0002940F0D6804169AA
:10167000090719D44169490500F1CF80416909077B
:1016800012D44169490500F1C880416909070BD4AA
:101690004169490500F1C1804169090704D44169E4
:1016A0004905E4D5B9E000BF5FFA88F101614169FD
:1016B000890739D44169721C01F4806114D0002972
:1016C00040F0AB80002E00F0D181FFF759FE401BA7
:1016D000B04200F2CD8120684169890724D4416974
:1016E0004905F2D599E000BF002940F09680416994
:1016F000890719D44169490500F18F80416989073B
:1017000012D44169490500F18880416989070BD4E9
:101710004169490500F181804169890704D4416923
:101720004905E4D579E000BF0021019141690191AB
:10173000816901910199016841F4807101604169F9
:10174000C90734D1711C28D056B1FFF719FE401BD0
:10175000B04207D820684169C907F6D027E000BF2A
:10176000FFF70EFE00202021206384F83D1084F84E
:101770003E00216C41F020012164216884F83C0086
:101780000868C00544BF4FF400702064012002B017
:10179000BDE8F0814169C90709D14169C90706D18E
:1017A0004169C90704BF41695FEAC171F2D047F0DE
:1017B000F10101614169890738D44169721C01F462
:1017C000806111D049BB002E00F05081FFF7D8FD99
:1017D000401BB04200F24C8120684169890725D442
:1017E00041694905F2D518E0B9B9416989071DD4A5
:1017F0004169490511D44169890717D441694905EF
:101800000BD44169890711D44169490505D441695F
:1018100089070BD441694905E7D5016841F4007196
:1018200001606FF480614161042022E1218D99B152
:10183000022927D001292DD1026822F4806202609A
:10184000002201924269019282690192019A026822
:1018500042F40072026028E0002101914169019187
:10186000816901910199016841F4007101602020B2
:1018700084F83D00002084F83E0084F83C0002B06B
:10188000BDE8F081026822F480620260026842F4DE
:10189000006202E0026842F480620260002201926B
:1018A0004269019280690190019888B2032817D893
:1018B00002283FD0012851D1002E00F099802068E5
:1018C000014651F8142F520600F196800868C006B0
:1018D00000F1F280FFF754FD401BB042EFD9E0E089
:1018E00086B100BF2068014651F8142F52060ED46D
:1018F0000868C00600F1E080FFF742FD401BB042DF
:10190000F0D9CEE020684169490640F1C380006902
:10191000616A0870606A218D013001396062218539
:101920002268638D013B638553695B0770D511693C
:10193000017064E020684169490745D4711C6BD08F
:10194000002E00F0CD80FFF71BFD401BB04200F2DF
:10195000C980206841694907F5D535E020684169AB
:1019600049070ED4711C65D0002E00F0B980FFF736
:1019700007FD401BB04200F2B5802068416949076D
:10198000F5D5016821F4806101600069616A087021
:10199000606A218D01300139606221852068618D86
:1019A00001396185416949070ED4711C50D0002E60
:1019B00000F09680FFF7E4FC401BB04200F29280FA
:1019C000206841694907F5D5016841F4007101605B
:1019D0000069616A0870606A2268411C6162218D39
:1019E00001392185618D013961851169417006E0F8
:1019F0002068416949064DD50069616A0870606ACE
:101A0000218D0130013960622185608D013860854A
:101A100008047FF44AAF2AE741694907D4D44169F1
:101A200049075CBF41695FEA4171CDD4416949070B
:101A3000F2D5C9E741694907A3D4416949075CBFA9
:101A400041695FEA41719CD441694907F2D598E741
:101A500041694907B8D4416949075CBF41695FEAF8
:101A60004171B1D441694907F2D5ADE7FFF788FC70
:101A7000202000212022216384F83D2084F83E109C
:101A8000226C1043206484F83C10012002B0BDE8B1
:101A9000F08100BF50F8141FC90601460CD4FFF7AF
:101AA0006FFC00202021206384F83D1084F83E0064
:101AB000206C40F020000AE06FF010000860002069
:101AC0002021206384F83D1084F83E00206C2064BF
:101AD000002084F83C00012002B0BDE8F08100BF86
:101AE000FFF74EFC00202021206384F83D1084F88D
:101AF0003E00216C41F02001216484F83C0001206B
:101B000002B0BDE8F08100002DE9F04381B01F462E
:101B1000164688460446FFF733FC94F83D1020290A
:101B200020D1054620688169890717D5FFF728FC71
:101B3000401B1928F6D900202021206384F83D108D
:101B400084F83E00216C022641F02001216484F8D3
:101B50003C00304601B0BDE8F08300BF94F83C1073
:101B6000012905D10226304601B0BDE8F08300BF4F
:101B7000012184F83C100168C90703D1016841F0D4
:101B800001010160016821F400610160212184F8F4
:101B90003D10102184F83E100021216466626785A3
:101BA000618D21850021CFF6FF71E162E16A11F5B7
:101BB000803F18BF012919D1016841F4807101608B
:101BC0004169DDF82090C90723D119F1010116D030
:101BD000B9F1000F46D000BFFFF7D2FB401B4845CC
:101BE00042D820684169C907F6D012E00829E3D03D
:101BF000216B1229E0D0E3E74169C90709D14169A6
:101C0000C90706D14169C90704BF41695FEAC171CB
:101C1000F2D02169B1F5804F02D1FE2161E000BF11
:101C2000062101EAD811F03101614169090757D451
:101C3000416919F1010201F480612FD0002946D1D8
:101C4000B9F1000F00F04281FFF79AFB401B4845B5
:101C500000F23E8120684169090741D44169490584
:101C6000F2D534E0FFF78CFB00202021206384F8BC
:101C70003D1084F83E00216C012641F020012164D2
:101C8000216884F83C000868C00544BF4FF4007028
:101C90002064304601B0BDE8F08300BFB9B94169A6
:101CA00009071DD44169490511D44169090717D4B1
:101CB000416949050BD44169090711D441694905B6
:101CC00005D4416909070BD441694905E7D5016885
:101CD00041F4007101606FF4806141610420F8E01B
:101CE000FF2101EA08010161416989073AD441698C
:101CF00019F1010201F4806112D051BBB9F1000F5A
:101D000000F0E080FFF73CFB401B484500F2DC8020
:101D100020684169890725D441694905F2D518E051
:101D2000B9B9416989071DD44169490511D441698F
:101D3000890717D4416949050BD44169890711D432
:101D40004169490505D4416989070BD441694905B1
:101D5000E7D5016841F4007101606FF48061416171
:101D60000420B6E000260096416900918169009147
:101D70000099218D002900F0958009F101080146A4
:101D800051F8142F120635D4B8F1000F16D0B9F15E
:101D9000000F00F0AF8000BF0868400500F1B2807E
:101DA000FFF7EEFA401B484500F2A9802068014683
:101DB00051F8142F1206EFD51CE000BF0A68520537
:101DC00000F1A0800A68120614D40A68520500F1D6
:101DD00099800A6812060DD40A68520500F19280B3
:101DE0000A68120606D40A68520500F18B800A6858
:101DF0001206E3D5636A194611F8012B026161628C
:101E0000618D01396185278D0146A7F1010CA4F888
:101E100028C051F8142F52070DD55FEA0C420AD0A2
:101E20005A78A7F1020C02619A1C6262628D013A33
:101E30006285A4F828C00A6852072FD4B8F1000FB1
:101E400014D0B9F1000F7BD00868400500F1808004
:101E5000FFF796FA401B484577D82068014651F8AD
:101E6000142F5207F0D5B4F828C017E00A685205BD
:101E70006ED40A68520711D40A68520568D40A68F9
:101E800052070BD40A68520562D40A68520705D477
:101E90000A6852055CD40A685207E7D55FEA0C412C
:101EA0007FF46DAF016841F400710160202084F877
:101EB0003D0084F83E6084F83C60304601B0BDE8E7
:101EC000F08300BFFFF75CFA202002E0FFF758FA2A
:101ED000202000212022216384F83D2084F83E1038
:101EE000226C01261043206484F83C10304601B077
:101EF000BDE8F0830868400504D4FFF741FA2020CC
:101F000004E000BF6FF480600860042000212022FC
:101F1000216384F83D2084F83E10226C1043206435
:101F200084F83C10206C042825D120680126016823
:101F300041F400710160304601B0BDE8F08300BF9C
:101F40000868400504D4FFF71BFA202004E000BF16
:101F50006FF480600860042000212022216384F84F
:101F60003D2084F83E10226C1043206484F83C101D
:101F7000206C0428D9D00126304601B0BDE8F0839A
:101F8000B0B586B0016845F20040C4F2000081425D
:101F900002D006B0B0BD00BF002443F63005019466
:101FA000C4F20205296800F5D83041F00201296029
:101FB000296801F00201019101994FF4107101911A
:101FC0001221CDE90214032104910421059101A9F4
:101FD000FFF7F4F80094286940F40010286128699C
:101FE00000F400100090009806B0B0BD2DE9F0415B
:101FF00086B00446006844F20C05816843F2044848
:10200000C4F20005C4F20008059108F57F77291F86
:10201000B84208BF08F10401096808F54066049158
:102020004168B8420391314604BF43F20441C4F20F
:1020300000010A680292626842F40072B2F5007F01
:102040004CD10599890744BF03995FEA01617BD4AC
:102050000498C00721D0029840061ED52068E16A86
:10206000B84208BF08F108052A6821F8022BE1628E
:10207000618E01396186618E79B9B842304608BFF8
:102080004046016821F060010160608D28B901209F
:1020900084F84100204600F0E5F80498400644BF6B
:1020A00002985FEA80606BD40598000744BF0398EC
:1020B0005FEA806044D520684168B84221F0A00101
:1020C000416008BF4646316821F06001316000215F
:1020D0000191806801900198B6E000BF049A9207D0
:1020E00044BF029A5FEA02626AD40598C00719D019
:1020F0000398400616D52068E16AC26821F8022BD1
:10210000E162618E01396186618E59B9416821F0C1
:1021100060014160608D28B9012084F841002046AB
:1021200000F0A0F80598400644BF03985FEA80607D
:1021300066D40498000744BF02985FEA806077D4B1
:1021400006B0BDE8F08100BF616A31F8022B616220
:10215000C260618D01396185618D00297FF478AF9E
:10216000416821F0A0014160608E00287FF470AFCB
:10217000012084F84100204600F074F868E700BFB1
:1021800020683146B84208BF41460A6822F0600222
:102190000A60416821F0A001416000210191C168FD
:1021A0000191806801900198012084F84100606CE1
:1021B00040F002006064204600F056F874E700BF6B
:1021C000626AB84232F8023B626208BF08F1080551
:1021D0002B60608D01386085608D00287FF485AFAD
:1021E000086820F0A0000860608E00287FF47DAFB2
:1021F000012084F84100204600F034F875E700BF64
:1022000020684168B84221F060014160304608BF53
:102210004046016821F0A0010160012084F84100DE
:10222000606C40F002006064204600F01DF880E71A
:102230002068B84208BF4646316821F0A0013160ED
:10224000416821F060014160012084F84100606C28
:1022500040F004012046616406B0BDE8F04100F0A2
:1022600003B8000070470000704700002DE9F041FE
:1022700000285AD0044690F8410050B9002084F854
:10228000400043F2C520C0F600006063204600F025
:10229000A5F8022184F8411020686269C36940F6FC
:1022A000BF76B343022AC361016203D121690222CE
:1022B00044E000BFD4E90206002521284FF00100C8
:1022C00038BF012500F07AFA2169B1F5007F07D106
:1022D000E368626963B10723002E08BF06230BE0A1
:1022E0000522002E08BF04222A44D040626905E07E
:1022F0000823002E08BF07232B44D84000EB8000A2
:102300004000B0FBF2F04CF6CD420530CCF6CC42AA
:10231000A0FB02206FF0FF0202EB101212F1FE0F81
:1023200006D2606C40F0100060640120BDE8F081CE
:10233000020900F00803206842EA431211430162D7
:10234000C16940F6BF7CD4E9015821EA0C06E26875
:1023500046EA0806A36916432E431E4346F4006668
:10236000C661266A012E31D141F6ED7643F21C4E4C
:10237000C0F60006C4F2000E66630EF579760EF51F
:102380004067B04204BF43F21C47C4F200073968FB
:10239000B04221EA0C01396044F22001C4F200018C
:1023A0004FF0020008BF0EF10401086038686FF4B6
:1023B00000714FF400660D4208BF4FF410663043C1
:1023C00040EA08001043184380B238600020012121
:1023D000606484F84110BDE8F08100002DE9F04709
:1023E0008AB0044643F600470068C4F200070021A3
:1023F000B842049102D00AB0BDE8F087C0204FF087
:10240000010802904FF0020901A8CDF80480CDF830
:102410000C9000F0FBF9002818BFFEF749FA0026DF
:1024200043F630000596C4F20200016905AD41F49F
:102430000041016101694FF0060A01F40041059174
:1024400005990596016841F001010160016801F0FC
:102450000101059105990596016841F004010160AB
:102460000068294600F00400059005981020CDE989
:10247000050907F5E230CDE90766CDF824A0FEF79F
:102480009DFE4FF4A450CDE9050907F5E630294635
:10249000CDE90766CDF824A0FEF790FE40F2C815FE
:1024A00046F2B800C2F20005C4F202004FF48062A6
:1024B000C5E9000605F110004FF400634FF4005722
:1024C0004FF4807C80E88C1004204021C5E908602E
:1024D0002846C5E90216C5E90A862E63FEF76CFD9B
:1024E000002818BFFEF7E4F9A563AC630AB0BDE8A5
:1024F000F08700007047000010B5044600294FF037
:10250000010018BF002A01D110BD00BF94F840009F
:10251000012804BF022010BD012084F8400094F877
:102520004100012812D1032084F84100002060649A
:10253000D4F800C06162DCF81C0000F00700052838
:102540000AD0032808BF520007E000BF0220002184
:1025500084F8401010BD00BF520022856285A06B38
:1025600043F2BD2243F29923C0F60002C0F60003F5
:10257000C0E90F3243F27522C0F60002C264238D17
:102580000CF10C02FEF7CAFD50B1606C40F008007F
:102590006064012084F84100002184F8401010BDDF
:1025A0002068C169490503D4C16941F48061C161F2
:1025B0004168890703D4416841F00201416000206D
:1025C000002184F8401010BD80B540F2C800C2F26E
:1025D00000000121416040F60040C4F202004FF4C7
:1025E0000041FEF7BFFE40F2C420C2F2000000F539
:1025F000805140F22010C2F200004FF40062BDE8AA
:102600008040FEF729BB000080B540F2C800C2F24E
:1026100000000121016040F60040C4F202004FF4C6
:102620008041FEF79FFE40F2201040F2C421C2F22A
:102630000000C2F200014FF40062BDE88040FEF7E6
:102640000BBB000040F2000046F2C421C2F20000C1
:10265000C2F2000100780A68104408607047000068
:1026600080B543F60040C4F20200016841F40071F5
:102670000160016841F480610160016841F480718A
:102680000160032000F08AF8002000F005F800F057
:1026900027F8002080BD000070B540F20006C2F2AD
:1026A000000640F208013278C2F200014FF47A735A
:1026B0000968B3FBF2F20446B1FBF2F1084600F000
:1026C000FDFB0F2C4FF0010508D838B94FF0FF3053
:1026D00021460022002500F035F87460284670BDC0
:1026E00082B0002043F640010190C4F202014A6822
:1026F00042F480424A604A6802F480420192019AA0
:102700000090086840F080500860086800F0805031
:1027100000900098072002B000F040B8002848BFA1
:102720007047C1B200F01F00012202FA00F04EF221
:102730000012CEF2000242EAD10121F0030108604A
:102740007047000010B54EF60C5CCEF2000CDCF8C1
:102750000030C3F3022E8EF00704042C28BF04249B
:10276000BEF103034FF0FF3E0EFA04F438BF00231E
:10277000A14399400EFA03F39A43114300F00F026C
:1027800000F160430901043A03F564436244002800
:1027900048BF02F10C03197010BD00004EF60C5139
:1027A000CEF200010A684FF6FF031A4060F30A22D6
:1027B00042F0806040F0FD7008607047012823D12E
:1027C00043F60400C4F20200416809021CD4016807
:1027D0000268490240F20001C0F2771102F03F02A4
:1027E0005CBF42F20041C0F2F401D0F88030B1FB8E
:1027F000F2F1D0F88000C3F388125143C0F30270A5
:10280000B1FBF0F0704700BF00207047F0B581B019
:102810000446006810F0050F2DD06827C4F2472742
:1028200043F670060020C4F202063860FEF7A8FDE9
:10283000054600BF56F8700C000105D5FEF7A0FD57
:10284000401B0228F6D93FE0D4E90110000740EA16
:102850008110706101203860FEF792FD054600BFCF
:1028600056F8700C000105D4FEF78AFD401B0228C3
:10287000F6D929E0206880074FF0000058D543F6CC
:102880007006C4F20206009056F8300C47F20007BA
:1028900040F0805046F8300C56F8300CC4F2000777
:1028A00000F0805000900098386840F480703860E4
:1028B000FEF766FD054600BF3868C00508D4FEF780
:1028C0005FFD401B0228F7D9032001B0F0BD00BF17
:1028D000306810F4407013D0E16801F44071884210
:1028E0000ED0306840F64061C4F24721012220F446
:1028F00040700A6000220A6030603068C00719D159
:10290000E06856F8681C4FF6FF4300F4407221F46B
:10291000F811C0F6FF730340B2F5407F08BF1943BA
:1029200046F8681C31686FF31F30084330600020A0
:1029300001B0F0BDFEF724FD054641F2883700BF27
:1029400030688007DCD4FEF71BFD401BB8424FF017
:102950000300F5D9ECE700002DE9F041002800F074
:102960008B8043F60808C4F202080446D8F8F8033E
:102970000D4600F00700884207D288F8F853D8F8CF
:10298000F80300F00700A84276D12068810717D528
:10299000410705D5D8F8001041F4E051C8F80010FF
:1029A000010705D5D8F8001041F46041C8F80010BF
:1029B000D8F80010A26821F0F0011143C8F8001007
:1029C000C0073FD1D8F8F80300F00700A84207D9A4
:1029D00088F8F853D8F8F80300F00700A8424BD164
:1029E0002068410707D5D8F80010E26821F4E051CB
:1029F0001143C8F80010000708D5D8F80000216975
:102A000020F4604040EAC100C8F8000000F068F817
:102A1000D8F8001043F69812C1F30311C0F6000273
:102A2000515C40F2080220FA01F140F20400C2F2C7
:102A300000000068C2F200021160FFF72DFE0020C6
:102A4000BDE8F0816068811E022907D258F8081C91
:102A500089015CBF0120BDE8F08111E0012807D1A8
:102A600058F8081C89035CBF0120BDE8F08107E02D
:102A700058F8081C890703D40120BDE8F08100BF85
:102A8000D8F8001021F003010843C8F80000FEF751
:102A900077FC064641F28837D8F80000616800F0FC
:102AA0000C00B0EB810F8DD0FEF76AFC801BB842A2
:102AB000F2D90320BDE8F08140F2080043F6080196
:102AC000C2F20000C4F202010068096843F6A812CD
:102AD000C1F38221C0F60002515CC840704700007B
:102AE00010B543F60404C4F20204606800F00C0060
:102AF000082809D0042819BF42F20040C0F2F400AF
:102B00000020C0F2771010BD2068216823684902B8
:102B100040F20001C0F2771100F03F02C3F38810C9
:102B20005CBF42F20041C0F2F401A1FB00010023AE
:102B3000FDF79AFB21680222C1F3014102EB41013A
:102B4000B0FBF1F010BD00002DE9F04182B000288B
:102B500068D00446007843F60006C007C4F20206B7
:102B60000BD0B06800F00C00042840F09F80306863
:102B7000800302D56068002854D0207880071AD5D9
:102B8000B06810F00C0F09D0B06800F00C000828F5
:102B900040F0A6807068400200F1A2803068800793
:102BA00002D5E06801283DD13068216920F0F800A5
:102BB00040EAC10030602078000737D42078400711
:102BC0004CD4A56955B3B06800F00C00082840F05B
:102BD000BB80012D26D07068E16900F480028A4232
:102BE00020D1216A00F03F028A421BD147F6C07112
:102BF000626A0140B1EB821F14D1A16A4FF6FF73E4
:102C0000C903994300F44032A1F580318A4209D1C9
:102C1000E16A00F07060B0EB016F03D1002002B0F8
:102C2000BDE8F081012002B0BDE8F08160690028B4
:102C300040F20000C4F2472076D00121C0F8801E87
:102C4000FEF79EFB054600BF706F8007B6D4FEF707
:102C500097FB401B0228F7D9DDE000BF306C10F075
:102C600080580AD100200190306C40F080503064D0
:102C7000306C00F080500190019847F20007C4F2D8
:102C800000073868C00541D4386840F48070386067
:102C9000FEF776FB054600BF3868C00536D4FEF760
:102CA0006FFB401B0228F7D9B5E000BFB06800F009
:102CB0000C00082803D1706840023FF558AF6068E7
:102CC000B0F5803F07D0B0F5A02F40F08D80306880
:102CD00040F480203060306840F4803030608DE017
:102CE000E068002852D00020C4F247200121016092
:102CF000FEF746FB054600BF306880073FF554AF3E
:102D0000FEF73EFB401B0228F6D984E0A0680128AC
:102D100005D005284ED1306F40F004003067306F89
:102D200040F0010030674FE00021C0F8801EFEF740
:102D300027FB0546706F80077FF540AFFEF720FB4D
:102D4000401B0228F6D966E00027C4F2472700207E
:102D50003866FEF715FB022D05460BD13068800161
:102D60005ED5FEF70DFB401B02284FF00300F5D99E
:102D700055E700BF306880017FF550AFFEF700FBDC
:102D8000401B02284FF00300F4D948E70020C4F2AA
:102D9000472000210160FEF7F3FA054630688007FE
:102DA0007FF509AFFEF7ECFA401B02284FF0030055
:102DB000F4D934E7316F002821F001013167316F18
:102DC00021F0040131674DD0FEF7DAFA054641F2F1
:102DD000883700BF306F800756D4FEF7D1FA401B0A
:102DE000B842F7D917E000BF3168002821F48031DC
:102DF0003160316821F4802131604FD0FEF7C0FA94
:102E0000054600BF306880033FF5B7AEFEF7B8FA5D
:102E1000401B6428F6D9032002B0BDE8F08100BF52
:102E200004F11C052FCD084340EA8210D9034FF668
:102E3000FF729143A1F5803140EA0560084370605C
:102E400001203866FEF79CFA044600BF3068800116
:102E50003FF5E4AEFEF794FA001B02284FF00300A2
:102E6000F4D9DCE6FEF78CFA054641F2883700BF5C
:102E7000306F800708D5FEF783FA401BB8424FF049
:102E80000300F5D9CBE600BFB8F1000F7FF499AE8F
:102E9000306C20F08050306493E600BFFEF770FA8B
:102EA000054600BF306880037FF567AEFEF768FA1D
:102EB000401B64284FF00300F4D9B0E6411E002007
:102EC000B0EB116F1CBF012070474EF21002CEF222
:102ED000000251604EF62351CEF20001F0230B7038
:102EE000072190601160704710B590F83C20012ACE
:102EF0004FF0020251D080F83D200268D2F804E081
:102F0000D2F808C00C682EF07003234341F2FF741E
:102F1000C4F20004A24253600EDC40F2FF73C4F21C
:102F200000039A4216DCB2F1804F2BD040F20043EE
:102F3000C4F2000324E000BF40F2FF33C4F20103F7
:102F40009A4213DC41F60003C4F200039A4219D0FE
:102F5000002313E040F60003C4F200039A4211D0AC
:102F600040F60043C4F200030AE000BF44F200034D
:102F7000C4F201039A4205D040F20043C4F20103B7
:102F80009A4204D149682CF08003194391600121D1
:102F9000002280F83D1080F83C20104610BD000053
:102FA000002804BF0120704710B5044690F83D008A
:102FB00028B9002084F83C00204600F01FF80220C9
:102FC00084F83D002068211D00F06AFA012084F891
:102FD000460084F83E0084F83F0084F8400084F8FE
:102FE000410084F8420084F8430084F8440084F8E7
:102FF000450084F83D00002010BD000081B000684D
:10300000B0F1804F02D001B0704700BF00200090A7
:1030100043F64000C4F20200016841F00101016082
:10302000006800F001000090009801B070470000B7
:1030300090F83D1001291CBF01207047022180F843
:103040003D10006841F2FF71C4F2000188420DDCBE
:1030500040F2FF71C4F20001884215DCB0F1804FEC
:103060002AD040F20041C4F2000123E040F2FF31D7
:10307000C4F20101884213DC41F60001C4F20001F0
:10308000884219D0002113E040F60001C4F200018B
:10309000884211D040F60041C4F200010AE000BFAE
:1030A00044F20001C4F20101884205D040F200411F
:1030B000C4F20101884206D1816801F007010629A6
:1030C00004BF00207047016841F001010160002049
:1030D0007047000080B590F83C20012A4FF00202B2
:1030E00000F0C28080F83D20D0F800C04FF6777223
:1030F000DCF8083023EA0202CCF808200B684F2BDA
:1031000028DC1F2B44DD202B45D0302B43D0402B17
:1031100040F0AC80D1F804E0C968DCF82030DCF87D
:10312000202022F00102CCF82020DCF8182022F028
:10313000F00242EA011123F00A0242EA0E02CCF840
:103140001810CCF82020DCF8081041F0470121F0DD
:10315000300180E06F2B27DDB3F5005F48D0B3F579
:10316000805F7AD0702B40F08180D1E901E3C9689B
:10317000DCF8082043EA0E0322F47F4243EA0121EF
:103180001143CCF80810DCF8081041F0770162E038
:103190000BB1102B6AD1DCF8081021F07001194333
:1031A00041F0070157E000BF502B35D0602B5DD1B7
:1031B000D1F804E0C968DCF8203023F01003CCF823
:1031C0002030DCF81830DCF8202023F4704322F0A3
:1031D000A00243EA013142EA0E12CCF81810CCF8F2
:1031E0002020DCF8081041F0670121F0100132E0E6
:1031F000D1E901E3C968DCF8082043EA0E0322F4B0
:103200007F4243EA01211143CCF80810DCF8081092
:1032100041F480411FE000BFD1F804E0C968DCF848
:103220002030DCF8202022F00102CCF82020DCF84D
:10323000182022F0F00242EA011123F00A0242EAC9
:103240000E02CCF81810CCF82020DCF8081041F061
:10325000570121F02001CCF808100022012180F84C
:103260003D10002180F83C10104680BD0122F5E79A
:10327000FEE70000806B01684A6822F003024A60A2
:10328000002141854186012180F84110416C41F0C7
:1032900008014164FEF7E8BFC169806B002918BFCF
:1032A000FFF792B901684A6822F002024A600021E1
:1032B0004185012180F84110FFF786B9806BFFF747
:1032C000A3B9000010B584B004460068816803917A
:1032D00094F84110042935D10399C90716D04168E3
:1032E000490613D5C168E26A22F8021BE262618EC8
:1032F00001396186618E49B9416821F06001416000
:10330000012084F841002046FFF7F4F803984006B6
:1033100018D520684168890614D5416821F06001FC
:10332000416000210291C168029180680290029878
:10333000012084F84100606C40F002006064204687
:10334000FEF792FF94F84100032817D103988007F5
:103350000DD520684168090609D5616A31F8022B4C
:10336000C2606162618D01396185618DF1B103983F
:10337000000703D520684168890601D404B010BD58
:10338000416821F0A0014160002101918068019015
:103390000198012084F84100606C40F0040120464F
:1033A000616404B0BDE81040FEF75EBF416821F0E3
:1033B000A0014160012084F841002046FFF704F994
:1033C00003980007DAD5D5E7FEE70000FEE7000026
:1033D0007047000070470000FFF734B9B0B592B0F5
:1033E000002443F640000B94CDE90944CDE907449D
:1033F0000594CDE90344CDE901440094C4F20200F0
:103400000168022541F080510160006800F08050A1
:103410000090009847F200000094C4F20000016898
:1034200041F480410160006800F480400090009801
:103430000120099010200A9008200E90A820CDE9C4
:103440000F050720119006A80695CDE90C54FFF74B
:103450007BFB28B1EFF3108072B600BFFEE700BF20
:103460000F20CDE901054FF4A05004904FF4805097
:10347000059001A805210394FFF76EFA20B1EFF340
:10348000108072B6FEE700BF12B0B0BD4EF6885095
:10349000CEF20000016841F4700101607047000045
:1034A00010B540F6FF3E0368C4F2000E40F2004C37
:1034B0007045C4F2010C27DCB0F1804F31D040F2EE
:1034C0000042C4F2000290422BD040F60002C4F247
:1034D0000002904225D041F6FF72C4F200029042F1
:1034E00029DC70453CDCB0F1804F5FD040F20042F7
:1034F000C4F20002904259D040F60002C4F2000229
:10350000904253D056E000BF40F60042C4F20002A1
:10351000904206D0604504D00022C4F201029042DD
:10352000D9D14A6823F07003134341F6FF72C4F205
:1035300000029042D5DD43F6FF72C4F201029042D0
:1035400022DC42F20002C4F2000290422ED000229D
:10355000C4F20102904229D0604527D02AE000BF82
:1035600040F60042C4F2000290421FD041F6000231
:10357000C4F20002904219D041F60042C4F20002A7
:10358000904213D016E000BF44F20002C4F20102E0
:1035900090420BD044F60002C4F20102904205D0E2
:1035A00044F20042C4F20102904203D1CA6823F4FB
:1035B0004073134323F080024B69D1F800E08C681C
:1035C0001A430260C46240F48062C0F828E0624599
:1035D00004BF096901630121416110BDFEE70000DC
:1035E0009AB040F60044C4F20204FFF739F8FFF73E
:1035F000F5FE002543F6300717951895C4F202072B
:1036000038684FF2100140F08000386038680022BE
:1036100000F0800018901898189538684FF210063E
:1036200040F001003860386800F0010018901898E8
:103630001895386840F008003860386800F00800D5
:10364000189018981895386840F004003860386869
:1036500000F00400189018981895386840F002009F
:103660003860386800F00200189018982046FDF77E
:1036700081FE1396012613A92046CDE914651695FF
:10368000FDF79CFD13953868002140F40010386068
:103690003868002200F400101390139813953868CE
:1036A00040F480003860386800F48000139013986C
:1036B0002F20FFF747F82F20FFF730F838200021A0
:1036C0000022FFF73FF83820FFF728F840F22010DB
:1036D000A4F56C41C2F200004FF080534FF0C06778
:1036E00016954FF48032057680F82050C0E90A73B1
:1036F000C66180F8305080E82600C0E90355466175
:10370000FDF7A2F920B1EFF3108072B6FEE700BF1B
:1037100040F22010C2F2000013A9CDE9135615950E
:10372000FDF7CCF820B1EFF3108072B6FEE700BFD2
:1037300040F2C8082020C2F2000818904FF08042E2
:103740004046002140F8082F0922AE231691CDE90A
:1037500014111991C0E90121C0E90331802181616F
:10376000FFF71EFC20B1EFF3108072B6FEE700BF3A
:103770004FF4805008F10806139013A93046FFF764
:10378000A9FC28B1EFF3108072B600BFFEE700BFBE
:1037900018A93046FFF7A8FB20B1EFF3108072B6EE
:1037A000FEE700BF40F22825A4F5DC30C2F2000598
:1037B00048F2A061C0F2010100274FF4804285E881
:1037C00083002846C5E90372C5E90577C5E907778F
:1037D000FDF7DCFD20B1EFF3108072B6FEE700BF0D
:1037E00040F27C20A4F5E831C2F200004FF40072F0
:1037F0004BF6803380E88600C0E90372C0E90537E4
:10380000C0E90777FEF732FD20B1EFF3108072B602
:10381000FEE700BF3046FFF70BFC00216846119120
:1038200005F11001442251F8043B043A40F8043BEE
:10383000F9D195E80F00FCF769FE1E20FCF77CFF2C
:103840000320FCF741FEFCF7B9FF42F2C42B40F223
:103850007C20C2F2000BC2F2000059464FF4005225
:103860004FF40059FEF748FE40F2C42AC2F2000AA3
:103870004FF4805C41F2020ED8F800100029FBD012
:1038800000236FF00F066FF00107C8F8003000BF8B
:103890003AF803200BEB07014A803AF803200BEBC0
:1038A00043000AEB030542806A880BEB0604828022
:1038B0006A881033C280AA8820360281AA88B3F5AC
:1038C000805F4281EA8807F120078281EA88E283EB
:1038D0002A8922842A8942826A8982826A89C282EA
:1038E000AA890283AA894283EA898283E8890884B3
:1038F000CED100BFD8F8040048B9D8F8040030B9D8
:10390000D8F8040018B9D8F804000028F2D0002331
:1039100041F6FE77C8F804300AEB030030F80C10CB
:103920000BEB430222F8091030F80C200BEB0701D7
:103930008A8030F80E201033CA8030F80E20704490
:103940000A814288B3F5805F4A81428807F12007E7
:103950008A818288CA8182880A82C2884A82C28811
:103960008A820289CA8202890A8342894A834289F9
:103970008A838289CA8380890884CDD17CE7F1EE6D
:10398000100A4FF6FF71C0F2C03120EA010040F08A
:103990004070E1EE100A70470000000000000000D7
:1039A00001020304060708090000000001020304E5
:1039B0000006101600061016D83900080000002076
:1039C00010000000C4010008E839000810000020C1
:1039D000B8680000E00100080100000010000000CD
:0839E0000024F40000000000C7
:040000050800018965
:00000001FF
